{
  "contracts/VerifySignature.sol": {
    "VerifySignature": {
      "abi": [
        {
          "inputs": [
            {
              "internalType": "bytes32",
              "name": "_messageHash",
              "type": "bytes32"
            }
          ],
          "name": "getEthSignedMessageHash",
          "outputs": [
            {
              "internalType": "bytes32",
              "name": "",
              "type": "bytes32"
            }
          ],
          "stateMutability": "pure",
          "type": "function"
        },
        {
          "inputs": [
            {
              "internalType": "bytes32",
              "name": "_ethSignedMessageHash",
              "type": "bytes32"
            },
            {
              "internalType": "bytes",
              "name": "_signature",
              "type": "bytes"
            }
          ],
          "name": "recoverSigner",
          "outputs": [
            {
              "internalType": "address",
              "name": "",
              "type": "address"
            }
          ],
          "stateMutability": "pure",
          "type": "function"
        },
        {
          "inputs": [
            {
              "internalType": "bytes",
              "name": "sig",
              "type": "bytes"
            }
          ],
          "name": "splitSignature",
          "outputs": [
            {
              "internalType": "bytes32",
              "name": "r",
              "type": "bytes32"
            },
            {
              "internalType": "bytes32",
              "name": "s",
              "type": "bytes32"
            },
            {
              "internalType": "uint8",
              "name": "v",
              "type": "uint8"
            }
          ],
          "stateMutability": "pure",
          "type": "function"
        }
      ],
      "evm": {
        "bytecode": {
          "linkReferences": {},
          "object": "608060405234801561001057600080fd5b506106b0806100206000396000f3fe608060405234801561001057600080fd5b50600436106100415760003560e01c806397aba7f914610046578063a7bb580314610076578063fa540801146100a8575b600080fd5b610060600480360381019061005b919061036f565b6100d8565b60405161006d919061040c565b60405180910390f35b610090600480360381019061008b9190610427565b610147565b60405161009f9392919061049b565b60405180910390f35b6100c260048036038101906100bd91906104d2565b6101af565b6040516100cf91906104ff565b60405180910390f35b6000806000806100e785610147565b92509250925060018682858560405160008152602001604052604051610110949392919061051a565b6020604051602081039080840390855afa158015610132573d6000803e3d6000fd5b50505060206040510351935050505092915050565b60008060006041845114610190576040517f08c379a0000000000000000000000000000000000000000000000000000000008152600401610187906105bc565b60405180910390fd5b6020840151925060408401519150606084015160001a90509193909250565b6000816040516020016101c29190610654565b604051602081830303815290604052805190602001209050919050565b6000604051905090565b600080fd5b600080fd5b6000819050919050565b610206816101f3565b811461021157600080fd5b50565b600081359050610223816101fd565b92915050565b600080fd5b600080fd5b6000601f19601f8301169050919050565b7f4e487b7100000000000000000000000000000000000000000000000000000000600052604160045260246000fd5b61027c82610233565b810181811067ffffffffffffffff8211171561029b5761029a610244565b5b80604052505050565b60006102ae6101df565b90506102ba8282610273565b919050565b600067ffffffffffffffff8211156102da576102d9610244565b5b6102e382610233565b9050602081019050919050565b82818337600083830152505050565b600061031261030d846102bf565b6102a4565b90508281526020810184848401111561032e5761032d61022e565b5b6103398482856102f0565b509392505050565b600082601f83011261035657610355610229565b5b81356103668482602086016102ff565b91505092915050565b60008060408385031215610386576103856101e9565b5b600061039485828601610214565b925050602083013567ffffffffffffffff8111156103b5576103b46101ee565b5b6103c185828601610341565b9150509250929050565b600073ffffffffffffffffffffffffffffffffffffffff82169050919050565b60006103f6826103cb565b9050919050565b610406816103eb565b82525050565b600060208201905061042160008301846103fd565b92915050565b60006020828403121561043d5761043c6101e9565b5b600082013567ffffffffffffffff81111561045b5761045a6101ee565b5b61046784828501610341565b91505092915050565b610479816101f3565b82525050565b600060ff82169050919050565b6104958161047f565b82525050565b60006060820190506104b06000830186610470565b6104bd6020830185610470565b6104ca604083018461048c565b949350505050565b6000602082840312156104e8576104e76101e9565b5b60006104f684828501610214565b91505092915050565b60006020820190506105146000830184610470565b92915050565b600060808201905061052f6000830187610470565b61053c602083018661048c565b6105496040830185610470565b6105566060830184610470565b95945050505050565b600082825260208201905092915050565b7f696e76616c6964207369676e6174757265206c656e6774680000000000000000600082015250565b60006105a660188361055f565b91506105b182610570565b602082019050919050565b600060208201905081810360008301526105d581610599565b9050919050565b600081905092915050565b7f19457468657265756d205369676e6564204d6573736167653a0a333200000000600082015250565b600061061d601c836105dc565b9150610628826105e7565b601c82019050919050565b6000819050919050565b61064e610649826101f3565b610633565b82525050565b600061065f82610610565b915061066b828461063d565b6020820191508190509291505056fea2646970667358221220258dbb2392989b3dc6ed5e91932a99399f50b8d3413b1680a5274b117affe36464736f6c63430008180033",
          "opcodes": "PUSH1 0x80 PUSH1 0x40 MSTORE CALLVALUE DUP1 ISZERO PUSH2 0x10 JUMPI PUSH1 0x0 DUP1 REVERT JUMPDEST POP PUSH2 0x6B0 DUP1 PUSH2 0x20 PUSH1 0x0 CODECOPY PUSH1 0x0 RETURN INVALID PUSH1 0x80 PUSH1 0x40 MSTORE CALLVALUE DUP1 ISZERO PUSH2 0x10 JUMPI PUSH1 0x0 DUP1 REVERT JUMPDEST POP PUSH1 0x4 CALLDATASIZE LT PUSH2 0x41 JUMPI PUSH1 0x0 CALLDATALOAD PUSH1 0xE0 SHR DUP1 PUSH4 0x97ABA7F9 EQ PUSH2 0x46 JUMPI DUP1 PUSH4 0xA7BB5803 EQ PUSH2 0x76 JUMPI DUP1 PUSH4 0xFA540801 EQ PUSH2 0xA8 JUMPI JUMPDEST PUSH1 0x0 DUP1 REVERT JUMPDEST PUSH2 0x60 PUSH1 0x4 DUP1 CALLDATASIZE SUB DUP2 ADD SWAP1 PUSH2 0x5B SWAP2 SWAP1 PUSH2 0x36F JUMP JUMPDEST PUSH2 0xD8 JUMP JUMPDEST PUSH1 0x40 MLOAD PUSH2 0x6D SWAP2 SWAP1 PUSH2 0x40C JUMP JUMPDEST PUSH1 0x40 MLOAD DUP1 SWAP2 SUB SWAP1 RETURN JUMPDEST PUSH2 0x90 PUSH1 0x4 DUP1 CALLDATASIZE SUB DUP2 ADD SWAP1 PUSH2 0x8B SWAP2 SWAP1 PUSH2 0x427 JUMP JUMPDEST PUSH2 0x147 JUMP JUMPDEST PUSH1 0x40 MLOAD PUSH2 0x9F SWAP4 SWAP3 SWAP2 SWAP1 PUSH2 0x49B JUMP JUMPDEST PUSH1 0x40 MLOAD DUP1 SWAP2 SUB SWAP1 RETURN JUMPDEST PUSH2 0xC2 PUSH1 0x4 DUP1 CALLDATASIZE SUB DUP2 ADD SWAP1 PUSH2 0xBD SWAP2 SWAP1 PUSH2 0x4D2 JUMP JUMPDEST PUSH2 0x1AF JUMP JUMPDEST PUSH1 0x40 MLOAD PUSH2 0xCF SWAP2 SWAP1 PUSH2 0x4FF JUMP JUMPDEST PUSH1 0x40 MLOAD DUP1 SWAP2 SUB SWAP1 RETURN JUMPDEST PUSH1 0x0 DUP1 PUSH1 0x0 DUP1 PUSH2 0xE7 DUP6 PUSH2 0x147 JUMP JUMPDEST SWAP3 POP SWAP3 POP SWAP3 POP PUSH1 0x1 DUP7 DUP3 DUP6 DUP6 PUSH1 0x40 MLOAD PUSH1 0x0 DUP2 MSTORE PUSH1 0x20 ADD PUSH1 0x40 MSTORE PUSH1 0x40 MLOAD PUSH2 0x110 SWAP5 SWAP4 SWAP3 SWAP2 SWAP1 PUSH2 0x51A JUMP JUMPDEST PUSH1 0x20 PUSH1 0x40 MLOAD PUSH1 0x20 DUP2 SUB SWAP1 DUP1 DUP5 SUB SWAP1 DUP6 GAS STATICCALL ISZERO DUP1 ISZERO PUSH2 0x132 JUMPI RETURNDATASIZE PUSH1 0x0 DUP1 RETURNDATACOPY RETURNDATASIZE PUSH1 0x0 REVERT JUMPDEST POP POP POP PUSH1 0x20 PUSH1 0x40 MLOAD SUB MLOAD SWAP4 POP POP POP POP SWAP3 SWAP2 POP POP JUMP JUMPDEST PUSH1 0x0 DUP1 PUSH1 0x0 PUSH1 0x41 DUP5 MLOAD EQ PUSH2 0x190 JUMPI PUSH1 0x40 MLOAD PUSH32 0x8C379A000000000000000000000000000000000000000000000000000000000 DUP2 MSTORE PUSH1 0x4 ADD PUSH2 0x187 SWAP1 PUSH2 0x5BC JUMP JUMPDEST PUSH1 0x40 MLOAD DUP1 SWAP2 SUB SWAP1 REVERT JUMPDEST PUSH1 0x20 DUP5 ADD MLOAD SWAP3 POP PUSH1 0x40 DUP5 ADD MLOAD SWAP2 POP PUSH1 0x60 DUP5 ADD MLOAD PUSH1 0x0 BYTE SWAP1 POP SWAP2 SWAP4 SWAP1 SWAP3 POP JUMP JUMPDEST PUSH1 0x0 DUP2 PUSH1 0x40 MLOAD PUSH1 0x20 ADD PUSH2 0x1C2 SWAP2 SWAP1 PUSH2 0x654 JUMP JUMPDEST PUSH1 0x40 MLOAD PUSH1 0x20 DUP2 DUP4 SUB SUB DUP2 MSTORE SWAP1 PUSH1 0x40 MSTORE DUP1 MLOAD SWAP1 PUSH1 0x20 ADD KECCAK256 SWAP1 POP SWAP2 SWAP1 POP JUMP JUMPDEST PUSH1 0x0 PUSH1 0x40 MLOAD SWAP1 POP SWAP1 JUMP JUMPDEST PUSH1 0x0 DUP1 REVERT JUMPDEST PUSH1 0x0 DUP1 REVERT JUMPDEST PUSH1 0x0 DUP2 SWAP1 POP SWAP2 SWAP1 POP JUMP JUMPDEST PUSH2 0x206 DUP2 PUSH2 0x1F3 JUMP JUMPDEST DUP2 EQ PUSH2 0x211 JUMPI PUSH1 0x0 DUP1 REVERT JUMPDEST POP JUMP JUMPDEST PUSH1 0x0 DUP2 CALLDATALOAD SWAP1 POP PUSH2 0x223 DUP2 PUSH2 0x1FD JUMP JUMPDEST SWAP3 SWAP2 POP POP JUMP JUMPDEST PUSH1 0x0 DUP1 REVERT JUMPDEST PUSH1 0x0 DUP1 REVERT JUMPDEST PUSH1 0x0 PUSH1 0x1F NOT PUSH1 0x1F DUP4 ADD AND SWAP1 POP SWAP2 SWAP1 POP JUMP JUMPDEST PUSH32 0x4E487B7100000000000000000000000000000000000000000000000000000000 PUSH1 0x0 MSTORE PUSH1 0x41 PUSH1 0x4 MSTORE PUSH1 0x24 PUSH1 0x0 REVERT JUMPDEST PUSH2 0x27C DUP3 PUSH2 0x233 JUMP JUMPDEST DUP2 ADD DUP2 DUP2 LT PUSH8 0xFFFFFFFFFFFFFFFF DUP3 GT OR ISZERO PUSH2 0x29B JUMPI PUSH2 0x29A PUSH2 0x244 JUMP JUMPDEST JUMPDEST DUP1 PUSH1 0x40 MSTORE POP POP POP JUMP JUMPDEST PUSH1 0x0 PUSH2 0x2AE PUSH2 0x1DF JUMP JUMPDEST SWAP1 POP PUSH2 0x2BA DUP3 DUP3 PUSH2 0x273 JUMP JUMPDEST SWAP2 SWAP1 POP JUMP JUMPDEST PUSH1 0x0 PUSH8 0xFFFFFFFFFFFFFFFF DUP3 GT ISZERO PUSH2 0x2DA JUMPI PUSH2 0x2D9 PUSH2 0x244 JUMP JUMPDEST JUMPDEST PUSH2 0x2E3 DUP3 PUSH2 0x233 JUMP JUMPDEST SWAP1 POP PUSH1 0x20 DUP2 ADD SWAP1 POP SWAP2 SWAP1 POP JUMP JUMPDEST DUP3 DUP2 DUP4 CALLDATACOPY PUSH1 0x0 DUP4 DUP4 ADD MSTORE POP POP POP JUMP JUMPDEST PUSH1 0x0 PUSH2 0x312 PUSH2 0x30D DUP5 PUSH2 0x2BF JUMP JUMPDEST PUSH2 0x2A4 JUMP JUMPDEST SWAP1 POP DUP3 DUP2 MSTORE PUSH1 0x20 DUP2 ADD DUP5 DUP5 DUP5 ADD GT ISZERO PUSH2 0x32E JUMPI PUSH2 0x32D PUSH2 0x22E JUMP JUMPDEST JUMPDEST PUSH2 0x339 DUP5 DUP3 DUP6 PUSH2 0x2F0 JUMP JUMPDEST POP SWAP4 SWAP3 POP POP POP JUMP JUMPDEST PUSH1 0x0 DUP3 PUSH1 0x1F DUP4 ADD SLT PUSH2 0x356 JUMPI PUSH2 0x355 PUSH2 0x229 JUMP JUMPDEST JUMPDEST DUP2 CALLDATALOAD PUSH2 0x366 DUP5 DUP3 PUSH1 0x20 DUP7 ADD PUSH2 0x2FF JUMP JUMPDEST SWAP2 POP POP SWAP3 SWAP2 POP POP JUMP JUMPDEST PUSH1 0x0 DUP1 PUSH1 0x40 DUP4 DUP6 SUB SLT ISZERO PUSH2 0x386 JUMPI PUSH2 0x385 PUSH2 0x1E9 JUMP JUMPDEST JUMPDEST PUSH1 0x0 PUSH2 0x394 DUP6 DUP3 DUP7 ADD PUSH2 0x214 JUMP JUMPDEST SWAP3 POP POP PUSH1 0x20 DUP4 ADD CALLDATALOAD PUSH8 0xFFFFFFFFFFFFFFFF DUP2 GT ISZERO PUSH2 0x3B5 JUMPI PUSH2 0x3B4 PUSH2 0x1EE JUMP JUMPDEST JUMPDEST PUSH2 0x3C1 DUP6 DUP3 DUP7 ADD PUSH2 0x341 JUMP JUMPDEST SWAP2 POP POP SWAP3 POP SWAP3 SWAP1 POP JUMP JUMPDEST PUSH1 0x0 PUSH20 0xFFFFFFFFFFFFFFFFFFFFFFFFFFFFFFFFFFFFFFFF DUP3 AND SWAP1 POP SWAP2 SWAP1 POP JUMP JUMPDEST PUSH1 0x0 PUSH2 0x3F6 DUP3 PUSH2 0x3CB JUMP JUMPDEST SWAP1 POP SWAP2 SWAP1 POP JUMP JUMPDEST PUSH2 0x406 DUP2 PUSH2 0x3EB JUMP JUMPDEST DUP3 MSTORE POP POP JUMP JUMPDEST PUSH1 0x0 PUSH1 0x20 DUP3 ADD SWAP1 POP PUSH2 0x421 PUSH1 0x0 DUP4 ADD DUP5 PUSH2 0x3FD JUMP JUMPDEST SWAP3 SWAP2 POP POP JUMP JUMPDEST PUSH1 0x0 PUSH1 0x20 DUP3 DUP5 SUB SLT ISZERO PUSH2 0x43D JUMPI PUSH2 0x43C PUSH2 0x1E9 JUMP JUMPDEST JUMPDEST PUSH1 0x0 DUP3 ADD CALLDATALOAD PUSH8 0xFFFFFFFFFFFFFFFF DUP2 GT ISZERO PUSH2 0x45B JUMPI PUSH2 0x45A PUSH2 0x1EE JUMP JUMPDEST JUMPDEST PUSH2 0x467 DUP5 DUP3 DUP6 ADD PUSH2 0x341 JUMP JUMPDEST SWAP2 POP POP SWAP3 SWAP2 POP POP JUMP JUMPDEST PUSH2 0x479 DUP2 PUSH2 0x1F3 JUMP JUMPDEST DUP3 MSTORE POP POP JUMP JUMPDEST PUSH1 0x0 PUSH1 0xFF DUP3 AND SWAP1 POP SWAP2 SWAP1 POP JUMP JUMPDEST PUSH2 0x495 DUP2 PUSH2 0x47F JUMP JUMPDEST DUP3 MSTORE POP POP JUMP JUMPDEST PUSH1 0x0 PUSH1 0x60 DUP3 ADD SWAP1 POP PUSH2 0x4B0 PUSH1 0x0 DUP4 ADD DUP7 PUSH2 0x470 JUMP JUMPDEST PUSH2 0x4BD PUSH1 0x20 DUP4 ADD DUP6 PUSH2 0x470 JUMP JUMPDEST PUSH2 0x4CA PUSH1 0x40 DUP4 ADD DUP5 PUSH2 0x48C JUMP JUMPDEST SWAP5 SWAP4 POP POP POP POP JUMP JUMPDEST PUSH1 0x0 PUSH1 0x20 DUP3 DUP5 SUB SLT ISZERO PUSH2 0x4E8 JUMPI PUSH2 0x4E7 PUSH2 0x1E9 JUMP JUMPDEST JUMPDEST PUSH1 0x0 PUSH2 0x4F6 DUP5 DUP3 DUP6 ADD PUSH2 0x214 JUMP JUMPDEST SWAP2 POP POP SWAP3 SWAP2 POP POP JUMP JUMPDEST PUSH1 0x0 PUSH1 0x20 DUP3 ADD SWAP1 POP PUSH2 0x514 PUSH1 0x0 DUP4 ADD DUP5 PUSH2 0x470 JUMP JUMPDEST SWAP3 SWAP2 POP POP JUMP JUMPDEST PUSH1 0x0 PUSH1 0x80 DUP3 ADD SWAP1 POP PUSH2 0x52F PUSH1 0x0 DUP4 ADD DUP8 PUSH2 0x470 JUMP JUMPDEST PUSH2 0x53C PUSH1 0x20 DUP4 ADD DUP7 PUSH2 0x48C JUMP JUMPDEST PUSH2 0x549 PUSH1 0x40 DUP4 ADD DUP6 PUSH2 0x470 JUMP JUMPDEST PUSH2 0x556 PUSH1 0x60 DUP4 ADD DUP5 PUSH2 0x470 JUMP JUMPDEST SWAP6 SWAP5 POP POP POP POP POP JUMP JUMPDEST PUSH1 0x0 DUP3 DUP3 MSTORE PUSH1 0x20 DUP3 ADD SWAP1 POP SWAP3 SWAP2 POP POP JUMP JUMPDEST PUSH32 0x696E76616C6964207369676E6174757265206C656E6774680000000000000000 PUSH1 0x0 DUP3 ADD MSTORE POP JUMP JUMPDEST PUSH1 0x0 PUSH2 0x5A6 PUSH1 0x18 DUP4 PUSH2 0x55F JUMP JUMPDEST SWAP2 POP PUSH2 0x5B1 DUP3 PUSH2 0x570 JUMP JUMPDEST PUSH1 0x20 DUP3 ADD SWAP1 POP SWAP2 SWAP1 POP JUMP JUMPDEST PUSH1 0x0 PUSH1 0x20 DUP3 ADD SWAP1 POP DUP2 DUP2 SUB PUSH1 0x0 DUP4 ADD MSTORE PUSH2 0x5D5 DUP2 PUSH2 0x599 JUMP JUMPDEST SWAP1 POP SWAP2 SWAP1 POP JUMP JUMPDEST PUSH1 0x0 DUP2 SWAP1 POP SWAP3 SWAP2 POP POP JUMP JUMPDEST PUSH32 0x19457468657265756D205369676E6564204D6573736167653A0A333200000000 PUSH1 0x0 DUP3 ADD MSTORE POP JUMP JUMPDEST PUSH1 0x0 PUSH2 0x61D PUSH1 0x1C DUP4 PUSH2 0x5DC JUMP JUMPDEST SWAP2 POP PUSH2 0x628 DUP3 PUSH2 0x5E7 JUMP JUMPDEST PUSH1 0x1C DUP3 ADD SWAP1 POP SWAP2 SWAP1 POP JUMP JUMPDEST PUSH1 0x0 DUP2 SWAP1 POP SWAP2 SWAP1 POP JUMP JUMPDEST PUSH2 0x64E PUSH2 0x649 DUP3 PUSH2 0x1F3 JUMP JUMPDEST PUSH2 0x633 JUMP JUMPDEST DUP3 MSTORE POP POP JUMP JUMPDEST PUSH1 0x0 PUSH2 0x65F DUP3 PUSH2 0x610 JUMP JUMPDEST SWAP2 POP PUSH2 0x66B DUP3 DUP5 PUSH2 0x63D JUMP JUMPDEST PUSH1 0x20 DUP3 ADD SWAP2 POP DUP2 SWAP1 POP SWAP3 SWAP2 POP POP JUMP INVALID LOG2 PUSH5 0x6970667358 0x22 SLT KECCAK256 0x25 DUP14 0xBB 0x23 SWAP3 SWAP9 SWAP12 RETURNDATASIZE 0xC6 0xED MCOPY SWAP2 SWAP4 0x2A SWAP10 CODECOPY SWAP16 POP 0xB8 0xD3 COINBASE EXTCODESIZE AND DUP1 0xA5 0x27 0x4B GT PUSH27 0xFFE36464736F6C6343000818003300000000000000000000000000 "
        },
        "methodIdentifiers": {
          "getEthSignedMessageHash(bytes32)": "fa540801",
          "recoverSigner(bytes32,bytes)": "97aba7f9",
          "splitSignature(bytes)": "a7bb5803"
        }
      }
    }
  }
}